:100E8A004100DD004100E0014100DE004300E100D5
:100E9A0000005000F0151515151515151515151521
:0C0EAA0015151515154400EA00000000A5
:100F45001213091212527FD07E071210C2120EE838
:100F55009000EEEEF0A3EFF04E70089000DD740205
:100F6500F0802C1211979000DDE014601214601FC0
:100F7500240270F21208B89000DDE060F780E712F5
:100F850008B812116A9000DDE0640160F280D712A2
:0C0F950010419000DDE0640260F580CAAD
:03000B000209B631
:1009B600C0E0C0F0C083C082C0D075D000C000C007
:1009C60004C005C006C007758CFB758ACA90014134
:1009D600E004F07006900140E004F090014230011E
:1009E6001EE0FCA3E0FDA3E0FEA3E02401FFE43E3D
:1009F600FEE43DFDE43CFC900142120353800712E5
:100A0600035F00000000C3900141E0941090014094
:100A1600E094274004E4F0A3F0900140E0FEA3E058
:100A2600FF7C037DE8120108ED4C70059000E5049B
:100A3600F0900140E0FEA3E0FF7C037DE812010890
:100A4600ED4C70059000E604F0900140E0FEA3E056
:100A5600FF7C007D64120108ED4C70059000E704F0
:100A6600F0900140E0FEA3E0FF7C137D88120108B0
:100A7600ED4C70059000E804F0900140E0FEA3E024
:100A8600FF7C037DE8120108ED4C70059000E90437
:100A9600F0D007D006D005D004D000D0D0D082D078
:060AA60083D0F0D0E03225
:03008B0002134617
:04134600538FEF32A0
:1008B80012126D40030209B51213409000DFEFF0E9
:1008C8007E009000EEE07003A3E06F6007EF4E60DB
:1008D800030209B512133A9000E4EFF024FE604CCD
:1008E80014700302097D14604C240360030209B5E7
:1008F8001213339000E1EBF0A3EAF0A3E9F0E4FF70
:10090800FE9000E1E0FBA3E0FAA3E0F98F828E837A
:100918001200A7FD74F02FF58274003EF583EDF008
:100928000FBF00010EEF64104E70D6227B017A00D3
:1009380079F00210821213339000E1EBF0A3EAF091
:10094800A3E9F012008E6401701C9000E1E0FBA3A3
:10095800E0FAA3E0F99000011200A79000E0F090FF
:1009680000DD7401F0227B017A0079F0121082E434
:100978009000DDF0221213339000E1EBF0A3EAF0CF
:10098800A3E9F012008EFF139283EF5402C31324DD
:10099800FF928412008EFF54041313543F24FF92D5
:0D09A80085EF5408131313541F24FF92957C
:0109B500221F
:10116A009000E5E064017024F09000DEE0600F7BFF
:10117A00017A0079F0121082E49000DEF0229000E9
:0D118A00E0E0FF1200269000DE7401F0226C
:0A1315009000E6E064017001F02290
:0A131F009000E7E064017001F02285
:0A1329009000E8E064017001F0227A
:101041009000E9E064017038D283D284D285D295D0
:101051007FF47E011210C2C283C284C285C2957F11
:10106100F47E011210C2E49000E9F09000EEE0700D
:1010710002A3E0700B120EE89000EEEEF0A3EFF089
:01108100224C
:100EE800E4FFFE3091030F8004EF54FEFFEF3092D1
:100EF800054402FF800354FDFFEF3093054404FFCF
:100F0800800354FBFFEF3094054408FF800354F737
:100F1800FFEF640E4E7004FE7F0122EF640D4E70E9
:100F280004FE7F0222EF640B4E7004FE7F0322EF63
:0C0F380064074E7004FE7F0422E4FEFFFC
:010F4400228A
:100EB600C10142014000004401420000000044011B
:050EC6003C00000000EB
:0C1309001200221210FC12000ED2AF22C3
:1010C200E4FCFD90013C120353D201900142120351
:1010D2005F0000000090013CE0FCA3E0FDA3E0FE05
:1010E200A3E0FF900142E0F8A3E0F9A3E0FAA3E055
:0910F200FBD312023840DEC201FA
:0110FB0022D2
:0100220022BB
:1010FC0043B30253B4FD43B30453B4FB43B308539B
:10110C00B4F743B31053B4EF53B1F743B208C283EF
:10111C0053B1EF43B210C28453B1DF43B220C28546
:09112C0053B3DF43B420C2952245
:10000E00538EF75389F0438901758CFB758ACAD2DA
:04001E00A9D28C22B5
:090ECB004100CB004200000000D0
:101252007B017A00790290010F12035F000000C83F
:0B1262007F807E257D007C00020C3A9E
:10126D007B017A0179081211ED500E900108E0FF13
:0A127D001207B0EFF460E9D322C3BA
:011287002244
:06133A009000CCE0FF2250
:061340009000CAE0FF224C
:071333007B017A0079CD2255
:1007B0009000CBE0B4070040030208B59007C3F8EF
:1007C0002828730207D80207E80207F8020808027F
:1007D000081802083B020867EF644160030208B58D
:1007E0009000CB04F00208B5EFB444099000CB743C
:1007F00002F00208B50208B0EFB444099000CB74CF
:1008000003F00208B50208B0EFB452099000CB74AF
:1008100004F00208B50208B0EFFDD3942F74809461
:10082000804016ED943574809480500DEF24D09064
:1008300000CAF0A37405F0807C8075EFFDD3942F7F
:1008400074809480401FED943A748094805016EF29
:1008500024D09000CCF0E4900000F0A3F09000CB06
:100860007406F080508049EFFD7C00640A700790A8
:1008700000CBF07F0122D3ED942FEC648094804074
:100880002FEF9447748094805026EF24D0FF90007F
:1008900000E0FCA3E024CDF58274003CF583EFF08A
:1008A000900001E004F0700D900000E004F080057D
:0708B000E49000CBF07FFF94
:0108B700221E
:101234003F065B4F666D7D077F6FBF86DBCFE6EDB4
:0E124400FD87FFEF40000001020304050607CE
:100ED40050011D00000000000000000000000000A0
:030EE4000000000B
:1011970053B3FE43B40153B1FE43B20153B1FD4310
:1011A700B2021212EA7F801212F27F871212A1C2D4
:0C11B700907FC01211C3121216D29022B9
:1012DA001212EAC2907FC01211C3121216D29022C1
:0B108200900108EBF0A3EAF0A3E9F0F6
:10108D00E4A3F0F090010BE0C394107480948050B1
:10109D0021E0FF900108E0FBA3E0FAA3E0F98F82C5
:1010AD007583001200A7FD1205C290010BE004F03C
:0510BD0080D202113594
:10002600EF24FE601314602414603C14604624041C
:1000360070507D157F0280477D157F041205C27DB5
:10004600157F051205C27D157F0680337D157F0756
:100056001205C27D157F081205C27D157F0912059E
:10006600C27D157F0A80187D157F0C1205C27D158D
:100076007F0D800B7D157F0E1205C27D157F0F1239
:0500860005C202113566
:1012A100900108EFF07F401212F2900108E04488AB
:0412B100FF0212F234
:10121600E4FFEFC3941074809480500F741D2FF573
:0E12260082E43401F583E4F00F80E702113515
:0A05C20090010DEDF090010CEFF038
:1005CC00E490010EF0C3EF94087480948040030211
:1005DC00066CE4F090010EE0FFC3940874809480E4
:1005EC0040030207AF90010DE090123493FEA80770
:1005FC00088002C313D8FC30E02B90010EE025E0FC
:10060C00241DF582E43401F583C083C082E0FF90A1
:10061C00010CE090124A93FEF87401088002C33377
:10062C00D8FC4F802D90010EE025E0241DF582E4CE
:10063C003401F583C083C082E0FBE47F01FEFDFC46
:10064C0090010CE090124A93F9F812025C12022B02
:10065C00EB5FD082D083F090010EE004F00205E055
:10066C0090010CE064086003020711A3E0641570AC
:10067C0003020711E4A3F090010EE0FFC394087489
:10068C0080948040030207AF90010DE090123493E8
:10069C004480FEA807088002C313D8FC30E02B90DE
:1006AC00010EE025E0241EF582E43401F583C083BD
:1006BC00C082E0FF90010CE090124293FEF87401AE
:1006CC00088002C333D8FC4F802D90010EE025E04A
:1006DC00241EF582E43401F583C083C082E0FBE480
:1006EC007F01FEFDFC90010CE090124293F9F81290
:1006FC00025C12022BEB5FD082D083F090010EE0F3
:10070C0004F002068390010CE0C394107480948072
:10071C0040030207AFE490010EF090010EE0FFC31E
:10072C00940874809480507B90010DE09012349367
:10073C00FEA807088002C313D8FC30E02B90010EF2
:10074C00E025E0241EF582E43401F583C083C082E9
:10075C00E0FF90010CE090124293FEF874010880C7
:10076C0002C333D8FC4F802D90010EE025E0241EEF
:10077C00F582E43401F583C083C082E0FBE47F01A1
:10078C00FEFDFC90010CE090124293F9F812025C11
:10079C0012022BEB5FD082D083F090010EE004F0BC
:0307AC000207261B
:0107AF002227
:10113500E490010CF07F441212F2E490010CF0905F
:10114500010CE0C39410748094805018E0FF241DB6
:10115500F582E43401F583E0FD12128890010CE07C
:0411650004F080DB37
:011169002263
:1012880090010DEDF0C290EF44C0FF1211C3900120
:091298000DE0FF1211C3D29022F7
:0812EA00D290D280D2817F4036
:0812F200C2901211C3D2902238
:1011C3000000E4FEEEC3940874809480501BC28038
:1011D3000000EF54016004D2818002C2810000D27A
:0911E3008000EFC313FF0E80DB56
:0111EC0022E0
:100E2100900113EBF0A3EAF0A3E9F0900113E0FBCA
:100E3100A3E0FAA3E0F9120390000000009001136F
:100E4100E0FBA3E0FAA3E0F99000041203AA00007A
:100E51000000900119E0FCA3E0FDA3E0FEA3E0FF88
:100E61009000081202BF900116E0FBA3E0FAA3E094
:100E7100F9C003C002C001900113E0FBA3E0FAA393
:090E8100E0F990000C1203FE22BE
:1012C800120390000000009000041203AA0000001E
:0212D8000022F2
:100AAC00900103EDF0900100EBF0A3EAF0A3E9F064
:100ABC0090000412028F900104120353900104E081
:100ACC00FCA3E0FDA3E0FEA3E02401FFE43EFEE472
:100ADC003DFDE43CFC90010412035390000812020B
:100AEC008F900104E0F8A3E0F9A3E0FAA3E0FBC3C4
:100AFC00120238700A90010412035F00000000908B
:100B0C000100E0FBA3E0FAA3E0F912026F900104EC
:100B1C00E0F8A3E0F9A3E0FAA3E0FBC312023870FB
:100B2C0002C322900103E0FFC007900100E0FBA389
:100B3C00E0FAA3E0F990000412028F90000C12036B
:100B4C00CE8F828E83D0E01200E6900104E0FCA3ED
:100B5C00E0FDA3E0FEA3E0FF900100E0FBA3E0FAC0
:0A0B6C00A3E0F99000041202BFD3C9
:010B7600225C
:100D990090010CEBF0A3EAF0A3E9F090010CE0FB61
:100DA900A3E0FAA3E0F990000412028F120303C32F
:100DB9001202387002C32290010CE0FBA3E0FAA3EF
:100DC900E0F97F017E007D007C001202E390000CB7
:100DD9001203CE8F828E831200A7FF90010FE0FBD2
:100DE900A3E0FAA3E0F9EF1200D490010CE0FBA311
:100DF900E0FAA3E0F990000812028F120303C3126C
:100E09000238701290010CE0FBA3E0FAA3E0F9129A
:080E1900039000000000D32249
:1012B50090000412028F120303C31202387002D386
:0312C50022C3221F
:100FA100900146EBF0A3EAF0A3E9F0900146E0FBE3
:100FB100A3E0FAA3E0F9120B77C004C005C006C094
:100FC10007900146E0FBA3E0FAA3E0F990000812C4
:100FD100028FEF24FFFBEE34FFFAED34FFF9EC341E
:100FE100FFF8D007D006D005D004C3120238700232
:040FF100D322C32222
:100B7700900149EBF0A3EAF0A3E9F0900149E0FB0B
:100B8700A3E0FAA3E0F990000412028F120303C353
:100B97001202387005FFFEFDFC22900149E0FBA31D
:100BA700E0FAA3E0F990000412028F120303C312C4
:100BB7000238900149E0FBA3E0FAA3E0F9900004B2
:100BC700501412028F120303C3EF9BFFEE9AFEED40
:100BD70099FDEC98FC22120323C000C001C002C09B
:100BE70003900149E0FBA3E0FAA3E0F912026FD0FA
:100BF70003D002D001D000C3EF9BFFEE9AFEED9920
:100C0700FDEC98FCC004C005C006C007900149E090
:100C1700FBA3E0FAA3E0F990000812028FD003D0FB
:100C270002D001D000C3EF9BFFEE9AFEED99FDECD9
:030C370098FC2204
:1011ED00900109EBF0A3EAF0A3E9F0900109E0F911
:1011FD00A3E0FAA3E090010FC9F0A3EAF0A3E9F090
:09120D007B017A01792D020D9993
:100C3A0090010812035390010CEBF0A3EAF0A3E928
:100C4A00F090010CE0F9A3E0FAA3E0900116C9F0D4
:100C5A00A3EAF0A3E9F090010FE0FCA3E0FDA3E012
:100C6A00FEA3E0FF9001191203537B017A01792D4B
:100C7A00120E2153B1BF53B2BF53B17F53B27FE4B7
:100C8A00F59175985043878053C4F843C420900166
:100C9A0008E0F8A3E0F9A3E0FAA3E0FB7F407E4274
:100CAA007D0F7C00120199C374FF9FFF74FF9EFEA3
:100CBA00E49DFDE49CFC78081202498FC690010865
:100CCA00E0F8A3E0F9A3E0FAA3E0FB7F407E427DCF
:100CDA000F7C00120199C374FF9FFF8FC543C4089C
:030CEA00D2AC2267
:0F12FA00C091E4F5918F993099FDC299D091225E
:03002300020FF5D4
:100FF500C0E0C0F0C083C082C0D075D000C000C0C2
:1010050001C002C003C004C005C006C007C09130BE
:10101500980D7B017A01792DAD99120AACC298D051
:1010250091D007D006D005D004D003D002D001D08E
:0C10350000D0D0D082D083D0F0D0E032C8
:080003008F993099FDC299228A
:03000000020CED02
:100CED0075C7AA75C75575FD5A75C7AA75C75575C8
:100CFD00FDA5787FE4F6D8FD9000007FFF7E03E42C
:0C0D0D00F0A3DFFCDEFA758120020D541B
:100D1900020F45E493A3F8E493A34003F68001F29C
:100D290008DFF48029E493A3F85407240CC8C333DB
:100D3900C4540F4420C8834004F456800146F6DFAA
:100D4900E4800B0102040810204080900E8AE47EA2
:100D5900019360BCA3FF543F30E509541FFEE4939F
:100D6900A360010ECF54C025E060A840B8E493A366
:100D7900FAE493A3F8E493A3C8C582C8CAC583CA91
:100D8900F0A3C8C582C8CAC583CADFE9DEE780BE49
:010EE700000A
:10008E00BB010689828A83E0225002E722BBFE0270
:09009E00E32289828A83E49322A3
:1000A700BB010CE58229F582E5833AF583E022500E
:1000B70006E92582F8E622BBFE06E92582F8E22258
:0D00C700E58229F582E5833AF583E4932272
:1000D400BB010689828A83F0225002F722BBFE010B
:0200E400F32205
:1000E600F8BB010DE58229F582E5833AF583E8F050
:1000F600225006E92582C8F622BBFE05E92582C8FC
:02010600F222E3
:10010800BC000BBE0029EF8DF084FFADF022E4CCDB
:10011800F875F008EF2FFFEE33FEEC33FCEE9DECA4
:10012800984005FCEE9DFE0FD5F0E9E4CEFD22EDEA
:10013800F8F5F0EE8420D21CFEADF075F008EF2F34
:10014800FFED33FD4007985006D5F0F222C398FD25
:050158000FD5F0EA22C2
:10015D0075F008758200EF2FFFEE33FECD33CDCC59
:10016D0033CCC58233C5829BED9AEC99E5829840DC
:10017D000CF582EE9BFEED9AFDEC99FC0FD5F0D6B9
:10018D00E4CEFBE4CDFAE4CCF9A88222B800C1B9E3
:10019D000059BA002DEC8BF084CFCECDFCE5F0CB21
:1001AD00F97818EF2FFFEE33FEED33FDEC33FCEB5A
:1001BD0033FB10D703994004EB99FB0FD8E5E4F915
:1001CD00FA227818EF2FFFEE33FEED33FDEC33FC02
:1001DD00C933C910D7059BE99A4007EC9BFCE99AF6
:1001ED00F90FD8E0E4C9FAE4CCFB2275F010EF2F3B
:1001FD00FFEE33FEED33FDCC33CCC833C810D7073B
:10020D009BEC9AE899400AED9BFDEC9AFCE899F875
:0E021D000FD5F0DAE4CDFBE4CCFAE4C8F92208
:0D022B00CFF4CFCEF4CECDF4CDCCF4CC2268
:10023800EB9FF5F0EA9E42F0E99D42F0E89C45F01C
:010248002293
:10024900E8600FECC313FCED13FDEE13FEEF13FF93
:03025900D8F122B7
:10025C00E8600FEFC333FFEE33FEED33FDEC33FC00
:03026C00D8F122A4
:10026F00BB010789828A830204635005E9F80204FF
:10027F0057BBFE05E9F802046F89828A8302047B6B
:10028F00BB010DE58229F582E5833AF5830204630C
:10029F005007E92582F8020457BBFE07E92582F8CB
:1002AF0002046FE58229F582E5833AF58302047B28
:1002BF00BB010DE58229F582E5833AF583020353ED
:1002CF005007E92582F8020536BBFE07E92582F8BB
:0402DF0002054222B0
:1002E300BB010789828A830204EA5005E9F8020404
:1002F300CABBFE05E9F802051F89828A8302047BD3
:10030300BB010789828A830204985005E9F8020435
:100313008BBBFE05E9F80204A489828A830204B137
:10032300BB010DE58229F582E5833AF58302049842
:100333005007E92582F802048BBBFE07E92582F802
:100343000204A4E58229F582E5833AF5830204B128
:0C035300ECF0A3EDF0A3EEF0A3EFF0221D
:10035F00A8828583F0D083D082120376120376129F
:10036F000376120376E473E493A3C583C5F0C583C4
:10037F00C8C582C8F0A3C583C5F0C583C8C582C8E8
:01038F00224B
:10039000BB010789828A8302035F5005E9F80205E1
:0A03A0004EBBFE05E9F802056722D6
:1003AA00BB010DE58229F582E5833AF58302035FF5
:1003BA005007E92582F802054EBBFE07E92582F8B7
:0403CA00020567229F
:1003CE00BB010DE58229F582E5833AF5830205929C
:1003DE005007E92582F8020580BBFE07E92582F861
:1003EE000205A4E58229F582E5833AF5830205B676
:1003FE00BB0120E58229F582E5833AF583D0F0D062
:10040E00E0F8D0E0F9D0E0FAD0E0FBE8C0E0C0F0D0
:10041E0002059B5018E92582F8D083D082D0E0F9EE
:10042E00D0E0FAD0E0FBC082C083020589BBFE1883
:10043E00E92582F8D083D082D0E0F9D0E0FAD0E07E
:09044E00FBC082C0830205AD224F
:0C045700E6FC08E6FD08E6FE08E6FF22D1
:0C046300E0FCA3E0FDA3E0FEA3E0FF220C
:0C046F00E2FC08E2FD08E2FE08E2FF22C9
:10047B00E493FC740193FD740293FE740393FF22C7
:0D048B00E6FB08E6F908E6FA08E6CBF822E1
:0C049800E0F8A3E0F9A3E0FAA3E0FB22E7
:0D04A400E2FB08E2F908E2FA08E2CBF822D8
:1004B100E493F8740193F9740293FA740393FB22A1
:1004C1007401FF3395E0FEFDFC080808E6CF2FF626
:1004D10018E6CE3EF618E6CD3DF618E6CC3CF622FF
:1004E1007401FF3395E0FEFDFCA3A3A3E0CF2FF041
:1004F100E582158270021583E0CE3EF0E582158219
:1005010070021583E0CD3DF0E582158270021583FE
:05051100E0CC3CF022EB
:100516007401FF3395E0FEFDFC080808E2CF2FF2D8
:1005260018E2CE3EF218E2CD3DF218E2CC3CF222C1
:0C053600ECF608EDF608EEF608EFF622F1
:0C054200ECF208EDF208EEF208EFF222F5
:10054E00D083D082E493F608740193F60874029374
:09055E00F608740393F6740473AB
:10056700D083D082E493F208740193F20874029363
:09057700F208740393F27404739A
:09058000E6FB08E6FA08E6F922A0
:09058900EBF608EAF608E9F62297
:09059200E0FBA3E0FAA3E0F9226A
:09059B00EBF0A3EAF0A3E9F02261
:0905A400E2FB08E2FA08E2F92288
:0905AD00EBF208EAF208E9F2227F
:0C05B600E493FB740193FA740293F922A1
:00000001FF
